S01B0000776966695F687474705F6F7461665F736F635F322E733337CD
S31500000000010000000D900D9084A501000100000084
S3150000001000102000B52CD1400000000000000000B8
S3150000002000000000000000000000000000000000CA
S315000000300000000000000000000000000D900D9080
S31500000040A55A0000002020080000008000000000E3
S31500000050000000000000000000000000000000009A
S31500000060000000000000000000000000000000008A
S31500000070000000000000000000000000000000007A
S31500000080000000000000000000000000000000006A
S31500001000B033010081212008412520084125200810
S315000010104125200841252008412520080000000020
S3150000102000000000000000000000000091082108F8
S315000010304125200800000000E1082108DFFE200805
S315000010404125200841252008412520084125200862
S315000010504125200841252008412520084125200852
S3150000106041252008412520088D2D200831512008D2
S3150000107035302008958A200841252008412520087A
S315000010804125200841252008B17F200855802008E9
S3150000109041252008497F2008E568200841252008C9
S315000010A04125200841252008412520084125200802
S315000010B04125200841252008B0330100412520089C
S315000010C081212008E52C20084125200841252008FB
S315000010D041252008412520081D30200829302008F8
S315000010E0BD242008412520087D8A200887F47059F0
S315000010F041252008412520084125200841252008B2
S315000011004125200841252008197F2008317F200825
S31500001110597E2008717E2008897E2008A17E20083D
S31500001120B97E2008D17E2008E97E2008017F2008AC
S3150000113041252008898A20084125200841252008C4
S315000011404125200841252008412520084125200861
S315000011504125200841252008412520084125200851
S315000011604125200841252008E998200800000000B4
S315000011700000000000000000000000000000000069
S3150000118010B500F0DFF9084C00F0EEF9074BA16846
S315000011904FF4B672184613F00BFCA06000F0B4FAD8
S315000011A0BDE810400DF0CDBC00ED00E000040000ED
S315000011B00348044B834202D0034B03B118477047E0
S315000011C08C1100008C110000000000000548064B41
S315000011D01B1AD90F01EBA301491002D0034B03B12F
S315000011E0184770478C1100008C11000000000000A9
S315000011F010B5064C237843B9FFF7DAFF044B13B159
S315000012000448AFF300800123237010BD8C11000049
S315000012100000000094A0210808B5054B1BB1054944
S315000012200548AFF30080BDE80840FFF7CFBF00BF19
S31500001230000000009011000094A0210870B5134C26
S31500001240134D23685E6C0023194628460222B047D8
S3150000125023681E680023194602222846B0472368E1
S315000012600C4DD3F8C0300520984723685E6C0023E8
S31500001270194628460A22B04723681C6800232846D8
S31500001280A4460A22BDE870401946604700013000B6
S3150000129000C00424000013460FB404B070470000D9
S315000012A030B5114B93F85830013BDBB2FD2B8FB0B4
S315000012B018D80E4D0FCD6C460FC40FCD0FC40FCDF1
S315000012C00FC495E8030084E80300094C6846D4F887
S315000012D0443717F0DFFE04F099FBD4F844370020BA
S315000012E00FB030BD0120FBE700021F0858021F089F
S315000012F000800524134B0168D3F84437F0B5012765
S31500001300013900D2F0BDD0F808C04668CCF3845548
S31500001310C5EBDC62346801320023013A0CD203FAD1
S3150000132005F203EA0C03C3F3150324EA0202AB40F9
S31500001330134333600830E3E707FA02FE43EA0E037D
S31500001340EBE700BF0080052408B51848FFF7D2FF79
S315000013501748FFF7CFFF04F0E3FD04F0F5FD04F0B6
S31500001360FFFD04F011FE04F01BFE1248FFF7C2FF5A
S315000013701148FFF7BFFF1148FFF7BCFF1048FFF702
S31500001380B9FF1048FFF7B6FF0F48FFF7B3FF0F4846
S31500001390FFF7B0FF0E48FFF7ADFF0E48FFF7AAFFB5
S315000013A0BDE808400C48FFF7A5BF00BF3811000094
S315000013B09C100000D80C0000A40D0000980D000041
S315000013C0B80D0000780C00006C0C0000600C0000EA
S315000013D0B40C0000FC0C0000F00C000010B5254C0D
S315000013E0FFF7B2FF94F8040600F00100FFF758FF7C
S315000013F04FF4C023C4F86C34D4F840311E4843F48B
S315000014000023C4F84031D4F8403143F00103C4F856
S315000014104031D4F8403143F00203C4F84031FFF7BD
S3150000142069FF16491648D1F8103543F00203C1F892
S315000014301035636923F400336361636943F48033D1
S315000014406361D0F84027D0F87837C2F34342023AB6
S3150000145023F4F07343EA4213C0F87837D1F8943492
S3150000146043F40023C1F89434236943F460132361E1
S3150000147010BD00BF00800424C40E000000A0052497
S315000014800080052408B550B10748FFF733FF074829
S31500001490FFF730FF0648BDE80840FFF72BBF0548B9
S315000014A0FFF728FF0448F6E70C0F0000B40F000012
S315000014B0A80F0000800F00002C0F00000B48D0F88A
S315000014C000D05DF804EB5DF804CB5DF804BB5DF875
S315000014D004AB5DF8049B5DF8048B80BC40BC20BC6B
S315000014E010BC08BC04BC02BC01BC7047B4110000AF
S315000014F0114AD2F8103623F48073C2F810360F4B17
S31500001500596B41F001015963596B41F0020159636E
S315000015100423C2F8383482B000238DF807309DF8D2
S315000015200730092B01D902B0704700BF9DF807307C
S315000015300133DBB2F1E700BF0080042400840424F9
S31500001540FEE7FEE7054B064A06498B4200D3704785
S3150000155052F8040B43F8040BF7E700BF0004000041
S31500001560B8A221088C110000064B0748DA1C121A93
S31500001570C11E22F00302994288BF0022002113F007
S315000015809FB900BFB00301008C11000070B562B6B0
S315000015903E4B3F4A1A603F4B3F4A93F806363F4C54
S315000015A03F4D03F00F030F2B15BF3E4B4FF000636B
S315000015B0D3F89312D3F837140CBF116011603A4A6E
S315000015C00CBFD3F83634D3F89232136004F09EFB86
S315000015D02F4BE36307F04AF9032004F067FE04F09B
S315000015E097FB324BDB694FF08061D3F880304FF0C8
S315000015F08C409847EB69022666F30E33EB612C4B61
S31500001600DA696FF30202DA61304604F0FBFB214B24
S315000016100D22C3F828265A6942F001025A615A6916
S315000016201A6A66F302021A621A6A1207FCD5AB69D5
S31500001630022262F38403AB61AB691B04FCD51D4B2C
S315000016401D4D5A6E6FF341025A665A6E6FF30002D1
S315000016505A66FFF74DFF19490D4B21614FF4FA40C9
S31500001660E16117496062002220624FF40040C4E93C
S315000016700033C4E90B15C4E90F33A2606261E3606D
S31500001680A06263636164A26170BD00BF08120000BE
S31500001690005A620200800424B0110000B811000054
S315000016A00081042400001F08AC1100000001300076
S315000016B00086042400840424002D310100B4C404EF
S315000016C00048E8014FF0E02384B0D3F8402F0192A0
S315000016D0D3F8442F02920199094A91420DD10299F9
S315000016E0084A914209D1D3F8882D0392039A42F40D
S315000016F070020392039AC3F8882D04B0704700BFA6
S31500001700210011101100001113B50023009301935D
S315000017102F4BD3F810250092009A00922D4A11689B
S3150000172021F00F01116011681160D3F89C1421F4A7
S315000017306071C3F89C14D3F8041701910199C3F89A
S315000017400415D3F8001701910199C3F80015D3F8D1
S31500001750101541F01C01C3F81015D2F8024014F41C
S315000017608074FAD11C48436943F48033436143696A
S3150000177064F351434361FFF7A5FF184B4FF08072A6
S315000017805A60174BC0F84031164B5A6864F3C302CF
S315000017905A60036A0E4A43F480330362036A43F4D1
S315000017A000330362D2F8943443F40023C2F894342D
S315000017B0036943F4601303610B4B1A6842F4002279
S315000017C01A601A6842F480221A6002B010BD00BF87
S315000017D000A00524000005240080042400003041F8
S315000017E003000800008104240084042430B50E4D53
S315000017F02B6885B043B90D4B0FCB6C4684E80F00C0
S3150000180020460DF01BFD28600DF08CFB022808D148
S31500001810286830B14FF0FF3105B0BDE830400DF01B
S315000018204ABD05B030BD00BF5C120000A07A210899
S3150000183008B50DF077FB022806D1044B186818B1DD
S31500001840BDE808400DF05CBD08BD00BF5C1200009D
S3150000185020F04040012802D0022805D07047034AF4
S315000018601368013313607047014AF9E764120000F8
S315000018706012000010B5124CE3689847A36811483F
S315000018809847236902209847A46A01211520A0479A
S3150000189001211620A0474FF4E1310120A0470A4C50
S315000018A0206810B90DF0CAFC2060084B4FF4805236
S315000018B0C3F88020BFF34F8FBFF36F8F10BD00BFFB
S315000018C0B07A2108512820086812000000E100E0E3
S315000018D013B5094C00238DF804302360074B012112
S315000018E09B6901A8984723681BB19DF8040002B0C4
S315000018F010BD00F0A5FBF6E760120000B07A2108E3
S3150000190013B5094C8DF8070000232360074B01210E
S315000019105B690DF10700984723680BB102B010BD53
S3150000192000F08EFBF8E700BF64120000B07A2108D1
S3150000193003681B780022202B04D0093B042B01D915
S31500001940D0B270470368591C01605B780132F2E738
S315000019500120704708B507F0BBF9162303604FF066
S31500001960FF3008BD08B507F0B3F916230360FEE79C
S3150000197070B50D4614460DF0D5FA022805D10C4B6C
S315000019804FF0FF3118680DF096FC2E46731BA342EC
S3150000199009DB0DF0C7FA022803D1054B18680DF0D4
S315000019A0AFFC204670BD16F8010BFFF7A9FFEDE767
S315000019B0681200004FF0FF3070474FF400534B6041
S315000019C00020704701207047002070470FB42DE9B2
S315000019D0F0438BB012AB002453F8046B019304ADB3
S315000019E08DF81040A846FFF773FF0D2805F8010B88
S315000019F004D00A2802D00134142CF4D19E4B019F46
S31500001A00E34004F1280213F001030DEB02041ABFB0
S31500001A10002304F8183C04F8173C9DF81030CDE973
S31500001A200268002B00F04E810025029B1B78002BDC
S31500001A304DD0DDF80C9099F80060002E47D002A832
S31500001A40FFF776FF044618B103A8FFF771FFECE72E
S31500001A50029A1346517813F8010B0293252801D1F7
S31500001A60252907D18E4232D109F1010302320393AF
S31500001A700292DAE726462046A0461A7806F07C014E
S31500001A80002A7CD100B1029309B3002C08BF63245D
S31500001A90082900F08780202900F0AA80042916D1A1
S31500001AA057F8042B4946144400200E780B460131A2
S31500001AB0002E6AD100286FD1B7E7692A50D01ED808
S31500001AC0632A52D011D8392A07D82F2A34D8E8B237
S31500001AD00BB0BDE8F04304B07047582AF7D146F082
S31500001AE0200601334FF0100832E0642AEFD146F4A5
S31500001AF0005646F0200601334FF00A0828E06F3AF8
S31500001B00D1B20929E3D8092AE1D801A151F822F076
S31500001B10552B2008CF2A2008CF2A2008CF2A2008B4
S31500001B20792B2008CF2A2008F32A2008CF2A20085C
S31500001B30CF2A2008DF2A2008002CC8D10A211A78CB
S31500001B40303A01FB042413F8012F303A092AF6D95A
S31500001B50012092E746F0200601334FF00808F7E728
S31500001B6046F0200601338846F2E7012C46F00406CB
S31500001B7038BF01240133EBE746F00806FAE70029EF
S31500001B809BD0002881D002937FE702F8016BA24226
S31500001B904FF0010089D10B46994503933FF445AFB9
S31500001BA0013542E703A8FFF7C3FE039E57F8043B3F
S31500001BB0314603EB040C00200C4611F8012B12B938
S31500001BC060B103940AE00D2A0FD8082AF8D803F862
S31500001BD0012B63454FF00100EED10391039A964223
S31500001BE03FF423AF00221A70DAE7202AEFD1E7E7A5
S31500001BF003A8FFF79DFE039BB8F1000F10D0B8F1C4
S31500001C00100F17D11A78302A14D15A7802F0DF0251
S31500001C10582A0FD102330393023C4FF0100809E013
S31500001C201A78302A16D15A7802F0DF02582AF1D0F3
S31500001C304FF00808039B1A782B2A0ED02D2A0FD1B5
S31500001C4001330393013C4FF0FF31039A0020144403
S31500001C50844616E04FF00A08ECE701330393013C93
S31500001C600121F2E7A9F14103052B02D920B3039222
S31500001C7022E0A9F1370317E0010010000CFB083C35
S31500001C80012092F800909646B9F1000FEED0A242DC
S31500001C90ECD0A9F13003DBB2092B06D9A9F1610317
S31500001CA0052BDFD8A9F15703DBB2984502F10102F3
S31500001CB0E4D808B1CDF80CE057F8043B0CFB01F171
S31500001CC019606DE74FF0FF3501E700BF04480223B6
S31500001CD01421C21801334B2B82F80013F9D1704737
S31500001CE000E100E038B5234B0222C3F88420BFF39D
S31500001CF04F8FBFF36F8F204BD3F80028D30735D40F
S31500001D0001231946202B01D11C4606E001FA03F4F3
S31500001D10144203F1010027D0DCB2184B03EB041385
S31500001D209A68C2F38162032A22D09B689B0F032B19
S31500001D301ED0134B142202FB0433D3E90253ED1ACF
S31500001D4018BF01250F4B0E4ADB680C49DB690E48AC
S31500001D5098472DB1084A01235169A3400B435361AB
S31500001D60044B02225A6038BD0346CBE70024D4E771
S31500001D700025E7E700E100E00000034400FC020064
S31500001D805C130000000130009005000038B5244BBC
S31500001D904FF48062C3F88020BFF34F8FBFF36F8F7D
S31500001DA0204BD3F80028D30736D4012319460C2B31
S31500001DB001D11C4606E001FA03F4144203F10100C6
S31500001DC028D0DCB2184B03EB04139A68C2F3816285
S31500001DD0032A23D09B689B0F032B1FD0134B14227F
S31500001DE002FB0433D3E90253ED1A18BF0125104B49
S31500001DF00E4ADB680C49DB690E4898472DB1094A43
S31500001E0001235169A3400B435361054B4FF4806294
S31500001E101A6038BD0346CAE70024D3E70025E6E783
S31500001E2000E100E000800724001C06246C1200007C
S31500001E300001300084050000064B1868002382B2BA
S31500001E4062F30F03000C60F31F4382B0184602B022
S31500001E50704700BF247B2108014B1868704700BFFC
S31500001E609C050000014803F007BB00BF9C0500006D
S31500001E70014903F0C1BA00BF9C050000014803F008
S31500001E8099BA00BF9C05000037B504460B200D46E5
S31500001E9000F042FB064B1B680193064B009302467B
S31500001EA0054B2946204603F047F803B030BD00BF76
S31500001EB054160000840500009C050000014803F04C
S31500001EC037B800BF9C050000014803F02EB800BFDC
S31500001ED09C0500007FB5104BD3E90354B2F5806F23
S31500001EE02E883ABF02F1FF33C3F3090340F2FF33F2
S31500001EF063F30D162E80258863F30D15074B258099
S31500001F001B680293064B0193064B0093024B02F0AB
S31500001F10D3FF04B070BD00BF9C050000541600003E
S31500001F206C120000840500000D4B1A69B1F5806F34
S31500001F3013B538BF01F1FF33148834BFC3F3090367
S31500001F4040F2FF3363F30D14064B14801B680193B4
S31500001F50054B0093024A054B02F010FF02B010BD7C
S31500001F609C050000541600006C1200008405000059
S31500001F700D4BDA68B1F5806F13B538BF01F1FF3349
S31500001F80148834BFC3F3090340F2FF3363F30D141F
S31500001F90064B14801B680193054B0093024A054BC0
S31500001FA002F03EFE02B010BD9C0500005416000073
S31500001FB06C12000084050000024B034A1B680349AB
S31500001FC002F086BD54160000840500009C05000042
S31500001FD0034B044904484FF400129A6402F028BDEA
S31500001FE000840424840500009C05000007B5064B08
S31500001FF00193064B0093064A064B074902F088FCFC
S3150000200003B05DF804FB00BFDC15000054160000A9
S3150000201084050000001C06249C050000014802F00F
S315000020204FBB00BF24060000014802F049BB00BFB9
S31500002030E0050000014802F043BB00BF9C0500001C
S31500002040FFF7F8BF7FB50126427803788DF80C209C
S315000020508DF80D308DF80E60044603988DF8082033
S315000020608DF8093005F0D4F8284D286070B96378EA
S31500002070052B0DD12178264B264A43F8214020799D
S3150000208004F0D2FEA378244A0121D15404B070BDD5
S31500002090042B1FD1304604F09EFE0346286000281C
S315000020A0F4D11E4A114652F8040B68B95BB2D8B295
S315000020B0002341F8204000932279194B1949415CCD
S315000020C002A805F011F8DDE70133082BEBD14FF03C
S315000020D0FF33ECE704F07FFE034628600028D5D1E5
S315000020E0114A104652F8041B49B95BB2D9B2002313
S315000020F040F82140009322790C4B0D48DFE701336D
S31500002100082BEFD14FF0FF33F0E700BF4017000078
S31500002110E8160000D53120083C170000FC16000028
S31500002120C5312008680600001C170000B5312008DC
S315000021307006000010B5044629B1042912D0BDE886
S31500002140104006F09BB84B2804D90D4840F2DB112D
S3150000215005F0FEFC240104F18C4404F59814606833
S31500002160C0B210BD0B2804D905484FF4EF7105F035
S31500002170EFFC240104F1105404F59824EFE700BFA6
S31500002180287B21087047000010B504464178007886
S31500002190FFF7D0FFA378064AD35C40B2984218BF37
S315000021A00121207808BF0021FFF7ECFF10BD00BF1A
S315000021B03C170000024B53F82000FFF7E5BF00BFB5
S315000021C01C170000024B53F82000FFF7DDBF00BFCD
S315000021D0FC160000024B53F82000FFF7D5BF00BFE6
S315000021E0E81600000378052B17D840781BB9392864
S315000021F015D904F04DBF5A1E012A05D9032B08D064
S31500002200042B08D0062800E0102834BF0020212027
S3150000221070470A28F9E70C28F7E721207047184687
S31500002220704713B50446807880B904F0D4FD63780E
S315000022308DF8043023788DF8053000238DF80630AC
S31500002240019802B0BDE8104004F0E2BF0120ECE7BF
S3150000225037B5B0F11A0518BF012504468DF80500FB
S31500002260AD0001A88DF80450FFF7BCFF20B92DB9C9
S315000022700A4B0122C3F8A42103B030BD0B2C04D9AC
S31500002280074840F23B1105F063FC240104F11054A9
S3150000229004F5982401236360EEE700BF00001346AF
S315000022A0287B210837B5B0F11A0518BF0125044669
S315000022B08DF80500AD0001A88DF80450FFF792FFD8
S315000022C018B925B9094BC3F8A40103B030BD0B2CCE
S315000022D004D9074840F2A11105F03AFC240104F1A3
S315000022E0105404F5982400236360EEE700001346BB
S315000022F0287B2108354BDFED366AD3F8102242F0F1
S315000023004002C3F8102207EE900AD3F81022F4EE2A
S31500002310E67A42F01002F1EE10FA07EE101A82B0D9
S31500002320C3F8102206DCF0EE086AB4EEE67AF1EEA7
S3150000233010FA08D5D3F8102242F02002C3F8102272
S31500002340002002B070479FED237AF4EEC77AF1EED3
S3150000235010FA10D5D3F810226FF30302C3F8102237
S31500002360D3F810226FF38612C3F81022D3F8102286
S315000023706FF30412E2E777EEC77ADFED176A134AC6
S3150000238087EEA67AF7EE007A77EE277AFCEEE77A02
S31500002390CDED017A9DF80430F6EE007A77EE277AD5
S315000023A007EE103AB8EE477AB4EEE77AF1EE10FA95
S315000023B0C2BFFCEEE77ACDED017A9DF80430D2F883
S315000023C0101263F30301C2F81012B9E700380424AF
S315000023D033333340CDCCCC3F0AD7A33D0A4B9A6C5E
S315000023E0013A052A0ED8DFE802F003050705090BB6
S315000023F0586C7047D86A7047D86B7047186B70472F
S31500002400586B704700207047B811000006281DD889
S31500002410DFE800F0040A0D10131619000C4B58687B
S3150000242009B1B0FBF1F07047094B186AF8E7084BA1
S31500002430586AF5E7064B986AF2E7054BD86AEFE764
S31500002440034B186BECE7024BD868E9E70020E7E797
S31500002450B811000010B5032814D8DFE800F0020A0E
S315000024600D100F48C06A7AB1A3B981B1B0FBF1F083
S315000024700DE00B48C069F6E709484069F3E70848EC
S315000024808068F0E70020EEE723B909B9400810BDDF
S315000024904900EBE7CB07FAD50229F8D9E6E700BFF2
S315000024A0B8110000F8B50C461546042828D8DFE810
S315000024B000F003211B1E2400FFF790FF15B394B113
S315000024C010F082FD064620460F4610F07DFD104BAB
S315000024D0002210F03DFC02460B463046394610F00D
S315000024E017FF11F085F8F8BD0A4BD869E6E7094BE6
S315000024F05869E3E7074B9868E0E7064BD868DDE7DD
S315000025000020DBE7002CEED0B0FBF4F0EBE700BFD9
S315000025100000E03FB811000010B50E2800F28F81D0
S31500002520DFE810F00F001E002D005300720084003B
S315000025309600B300CA00DD00E70009013201600120
S3150000254082014FF08C43BDE81040D869D969DA6939
S31500002550C1F3C301C2F3407200F00700FFF7A2BF48
S315000025604FF08C43BDE81040D869D969DA69C1F3E8
S315000025708321C2F38072C0F3C210FFF793BF4FF0FE
S315000025808C4293699469C3F3C233C4F3C324052B05
S3150000259019D8DFE803F003090C0F1215FFF71EFF29
S315000025A00CB1B0FBF4F010BD8C4B9868F8E78B4B80
S315000025B01869F5E7894B5869F2E7884BD869EFE760
S315000025C0864BD868ECE70020EAE74FF08C42936A26
S315000025D0946AC3F34243C4F30554032B12D8DFE8CD
S315000025E003F002080B0EFFF7F9FE002CDBD06400A7
S315000025F0D7E77A4B5869F8E7784B9868F5E7774B51
S31500002600D868F2E70020F0E74FF08C43BDE81040B1
S31500002610986999699A69DB69C2F34022C3F300732A
S31500002620C1F3C50100F00700FFF714BF4FF08C435C
S31500002630BDE81040D86F99699A69DB69C2F34022F8
S31500002640C3F30073C1F3C501C0F34220FFF702BF15
S315000026504FF08C439B69C3F30263042B00F2EF80B7
S31500002660DFE803F003060A0D10005C4BD8689AE712
S31500002670BDE81040FFF7B2BE584B986893E7574B3A
S31500002680D86990E7554B58698DE74FF08C429169B0
S315000026909369926911F4802F5049C2F3C0520CBF5E
S315000026A048698868C3F3C3431AB1002B3FF47BAF74
S315000026B012E083B9400876E74FF08C439A6A9B6A2A
S315000026C012F4806F454A0CBF9069D068C3F3C523E6
S315000026D0002B3FF468AF5B00B0FBF3F063E7404BC1
S315000026E098699969BDE81040C1F34641000FFFF7AC
S315000026F08DBE3B4BDA69DB69C2F34302C3F3471372
S31500002700052A16D8DFE802F00306090C0F12334A31
S315000027105068DDE7314A106ADAE7304A506AD7E78F
S315000027202E4A906AD4E72D4AD06AD1E72B4A106B1D
S31500002730CEE70020CCE72A4B1A6A1B6AC2F3430293
S31500002740C3F34213072A1DD8DFE802F004070A0D77
S3150000275010131619214A5068A7E7204A106AA4E701
S315000027601E4A506AA1E71D4A906A9EE71B4AD06A34
S315000027709BE71A4A106B98E7184AD06895E7174AFC
S31500002780506B92E7002090E7154B1B6BC3F3430396
S31500002790062B54D801A252F823F000BFB9372008FF
S315000027A0BF372008C5372008CB372008D137200887
S315000027B0D73720086B362008084B5868F3E6074BD6
S315000027C0186AF0E6054B586AEDE6044B986AEAE6A5
S315000027D0024BD86AE7E6014B186BE4E6B811000035
S315000027E000140424174B5B6BC3F34303082B26D852
S315000027F001A252F823F000BFB9372008BF372008DE
S31500002800C5372008CB372008D1372008D73720080E
S315000028106B3620081D382008233820080A4B586BD1
S31500002820C1E6094B9869BEE6064BD86AD96ABDE887
S315000028301040C1F34711C0F34300FFF7E7BD002086
S31500002840B1E600BF00140424B8110000024B1B6857
S31500002850D3F8BC30184700BF00013000024B1B689C
S31500002860D3F8CC30184700BF00013000024B1B687C
S31500002870D3F8EC30184700BF0001300007EE100A0D
S31500002880FDEEC77AF8EEE76AF4EEC76AF1EE10FAE3
S3150000289041BF17EE903A013307EE903AF8EEE76A39
S315000028A016EE900A70470000024B01219B69C0B2E8
S315000028B0184700BF64170000FFF7F6BF1346054A26
S315000028C0126810B4546C0A46A44600215DF8044B05
S315000028D0604700BF0001300010B54FF4006003F000
S315000028E051FA094C094B4FF000725A6422782AB902
S315000028F0074B08481B6A01219B6A9847237843F0D7
S315000029000103237010BD00BFB41A00000084042424
S31500002910000130000014042482B0ADF804000A4B14
S315000029204FF400621A609DF80420084B2AB9D3F8C8
S31500002930082242F40062C3F808225A68002042F0D6
S3150000294001025A6002B0704700E100E0003804243A
S315000029502DE9F04F224B234893F81CE0224B1A78BE
S3150000296000231C4602F59875D9B28E450CD8DFF8BF
S3150000297080800023A8F5107902F5907CDAB296459E
S3150000298009D80020BDE8F08F30F815108C4238BF0A
S315000029900C460133E8E743B929F81C300133EDE76B
S315000029A0B5F820B0594489B20AE000271FFA83FA25
S315000029B0BEB2B442F2D900220C4D104635F8021FC1
S315000029C08C4203D9B142EBD1013080B2013292B2CE
S315000029D05245F3D301370028EAD128F81360DDE722
S315000029E0641700008417000060170000C219000079
S315000029F0C4190000012800D17047C30701D440085C
S31500002A00F8E70020704703460120834208DC00EB0C
S31500002A10D072A3EB6203B3EBA00FB8BF40087047B8
S31500002A204000F2E784B02DE9F7430AAC84E80F00D2
S31500002A300023ADF806309DF8BC515F4B9DF8BD7183
S31500002A405A885B68B3FBF2F30DB9012F40D15B499D
S31500002A5001250A885A4C07EE903A92B20AAB03EB6C
S31500002A60820393ED057AF8EE677AB8EE477AC7EEF9
S31500002A70877A17EE900AFFF701FF07EE900A0B8898
S31500002A80FCEEE77A9BB203F5987317EE902A24F8CA
S31500002A9013200B889BB203F5987334F81330012B7F
S31500002AA006D80B889BB203F59873022224F81320EC
S31500002AB0444E0DF138094FF00008B7EE006A5FFA90
S31500002AC088F39F4207D803B0BDE8F04304B07047CF
S31500002AD00DF10601BDE7B8F1000F17D0D9ED007A68
S31500002AE03288B8EE677AD9ED017AF8EE677AC7EEE2
S31500002AF0277A17EE900AFFF7C1FE07EE900AFCEE62
S31500002B00E77A17EE903A13FB02F37380012F08D091
S31500002B1072881046FFF76EFF18B91046FFF773FF6D
S31500002B2070808DB10B880AAA9BB202EB4303B3F8FF
S31500002B30F430012B08D10B889BB203F5987334F857
S31500002B401320920824F81320DFED1F7A00231FFAC2
S31500002B5088F09842ADF806300AD2F4EEC67AF1EE65
S31500002B6010FA27DC08F10108023609F10409A6E784
S31500002B700A8892B202F59872013334F8122007EEF1
S31500002B80102AB8EE477A9BB2C6EE076A77EEA67AA7
S31500002B90DFE70A8892B202F59872013334F812C060
S31500002BA04FEA4C0C24F812C09BB29842ADF806309E
S31500002BB0EFD2D7E70023F8E764170000601700009C
S31500002BC084170000E21900000000000007EE100A5A
S31500002BD0DFED087A084837EE277AF7EE006AC6EE88
S31500002BE0877AFCEEE77A17EE903A834228BF0346CF
S31500002BF01846704795BFD633404B4C0084B0F0B5AD
S31500002C0006AC84E80E00DFED957A002123AC0DF1C9
S31500002C106B050A460B46CEB2B04200F2B080002BDE
S31500002C2000F0A480B0EE007AF4EEC77AF1EE10FA66
S31500002C30B0EE047A05DBF4EEC77AF1EE10FA00F195
S31500002C40DD80F4EEC77AF1EE10FAB0EE087A05DB15
S31500002C50F4EEC77AF1EE10FA00F1D680F4EEC77AF8
S31500002C60F1EE10FAB1EE007A05DBF4EEC77AF1EE7A
S31500002C7010FA00F1CC80F4EEC77AF1EE10FAB1EE5C
S31500002C80047A05DBF4EEC77AF1EE10FA00F1C280A1
S31500002C90F4EEC77AF1EE10FA07DBB1EE087AF4EE3D
S31500002CA0C77AF1EE10FA00F1B880B1EE0C7AF4EEC4
S31500002CB0C77AF1EE10FAB2EE007A05DBF4EEC77AC7
S31500002CC0F1EE10FA00F1AC80F4EEC77AF1EE10FAEC
S31500002CD0B2EE027A05DBF4EEC77AF1EE10FA00F1F5
S31500002CE0A280F4EEC77AF1EE10FA07DBB2EE047AB0
S31500002CF0F4EEC77AF1EE10FA00F19880B2EE087A97
S31500002D00F4EEC77AF1EE10FA06DBB2EE0C7AF4EEC8
S31500002D10C77AF1EE10FA61D4B3EE017AF4EEC77A0F
S31500002D20F1EE10FA06DBB3EE027AF4EEC77AF1EEB4
S31500002D3010FA60D4B3EE097AF4EEC77AF1EE10FA1F
S31500002D4006DBB3EE0A7AF4EEC77AF1EE10FA70D922
S31500002D50B3EE0B7AF4EEC77AF1EE10FA06DB9FEDCE
S31500002D60407AF4EEC77AF1EE10FA74D9DFED3D7AC7
S31500002D709FED3D7A002A18BFF0EE477A65E015F818
S31500002D80016FA6F1140CBCF1020F2F7C0FD894ED45
S31500002D90007AF4EEC77AF1EE10FA03D50133DBB20E
S31500002DA0F0EE477A0D2F16D00131043433E7A7F140
S31500002DB00A0CBCF1020F0CD894ED007AB4EEE77A57
S31500002DC0F1EE10FA03DD0133DBB2F0EE477A182E8E
S31500002DD0E9E7182EE6D10132D2B2E5E7DFED237A34
S31500002DE09AB39FED217AF4EEC77AF1EE10FA23D565
S31500002DF0F0EE477A29E0DFED1E7AF1E7DFED1D7A86
S31500002E00D2B1DFED197A20E0DFED1B7AF8E7DFEDCE
S31500002E101B7AF5E7DFED1A7AF2E7DFED1A7AEFE7CC
S31500002E20DFED197AECE7DFED197AE9E7DFED187ADD
S31500002E30E6E7DFED187A42B19FED0A7AF4EE477ABB
S31500002E40F1EE10FA48BFF0EE477ABDE8F04017EE13
S31500002E50900A04B07047DFED107AECE7000000003E
S31500002E6000004C4295BFD6338BE16A36EFE6083652
S31500002E709F9D42362E5A823301A90C3437F85934B5
S31500002E802439EC3434580F35AD186335883E8A350D
S31500002E90ACC5A735B1B49D36F2DD1C3770B50D460D
S31500002EA016460446D0B9FFF7E1FCAA480722214698
S31500002EB0FFF704FD002D40F0AA81012E00F09F814E
S31500002EC00B2C1DD00C2C40F0F5800520FFF7CEFC16
S31500002ED0A04807220521FFF7F1FC98E0012818D148
S31500002EE00220FFF7C3FC9B4807220221FFF7E6FCFE
S31500002EF0002D76D1012E00F082810B2C40F0DA8075
S31500002F000320FFF7B3FC072203219248FFF7D6FC04
S31500002F1096E002280ED10420FFF7A8FC0722042120
S31500002F208C48FFF7CBFC002D00F06681012D40F0A8
S31500002F30778155E1032805D10620FFF797FC072284
S31500002F400621EDE7042805D10820FFF78FFC0722AC
S31500002F500821E5E7052805D10A20FFF787FC0722A7
S31500002F600A21DDE706280CD17B4B20225A60192066
S31500002F70FFF774FC1920FFF769FC78480E22192127
S31500002F80B4E707281ED1744B20225A601B20FFF796
S31500002F9065FC1B20FFF75AFC0E221B216F48FFF72A
S31500002FA08DFC002D00F02881012D40F0D980012EE6
S31500002FB000F019810C2C21D10520FFF757FC0722C0
S31500002FC00521A2E7082840F0FD80634B20225A60C5
S31500002FD01D20FFF743FC1D20FFF738FC0E221D21A4
S31500002FE0DCE70B2C1ED0012D40F01A81012E00F0DB
S31500002FF0FA800C2CE0D00D2C00F0C1800E2C50D0A5
S315000030000F2C6FD0102C75D12EE0022D40D0032D41
S3150000301052D1012E59D00E2C70D00F2C62D0102C0C
S3150000302030D121E00320FFF721FC4A480722032183
S31500003030FFF744FC022D2BD0032D03D1012E44D0E3
S31500003040002070BD042D00F0A480052DDAD1012EDC
S3150000305040F0A3800720FFF709FC07223D481146F0
S31500003060FFF72CFC102C5ED13B4B20225A601A2015
S31500003070FFF7F4FB1A20FFF7E9FB38480E221A2166
S31500003080FFF71CFC112C50D0072D5CD1012E88E0D7
S31500003090012ED5D169E0012E67D00D2C0FD00E2C54
S315000030A0BBD10920FFF7E2FB2A4807220921FFF7D7
S315000030B005FCCAE70D2C62D00E2C68D1F1E70B2077
S315000030C0FFF7D4FB07220B211FE70B20FFF7CEFBF0
S315000030D0204807220B21FFF7F1FB8FE70E2CE0D0EB
S315000030E00F2CB2D10720FFF7C1FB07221948114662
S315000030F0FFF7E4FB062DC5D1012E4FE00920FFF7AF
S31500003100B5FB0722092100E70920FFF7AFFB1148AD
S3150000311007220921FFF7D2FB7FE70720FFF7A6FB6F
S3150000312007221146F1E6112C0DD10B4B20225A60D5
S315000031301C20FFF793FB1C20FFF788FB07480E2295
S315000031401C21FFF7BBFB122C2FD0082D7FF478AF84
S31500003150012E28E000C00424000030410000134680
S31500003160022D7FF454AF012E99D10520FFF77EFB87
S315000031702E4807220521FFF7A1FB0D2CAED10B200F
S31500003180FFF774FB294807220B21FFF797FB042D55
S31500003190A6D1012EB8D00F2CBFD0102C3FF464AFAF
S315000031A0112CC2D0122C7FF44BAF214B20225A6037
S315000031B01E20FFF753FB1E20FFF748FB1D480E227B
S315000031C01E21A3E60A287FF475AE0120FFF74EFB09
S315000031D0164807220121FFF771FB012D7FF415AF79
S315000031E0012E7FF42DAF0320FFF740FB0F48072287
S315000031F00321FFF763FB65E6012E7FF421AF012073
S31500003200FFF734FB094807220121FFF757FB0B2C78
S315000032103FF408AF012D3FF4E9AE0C2C3FF455AE58
S31500003220022D3FF438AF0D2CA9D0F0E600C00424DF
S31500003230000030410000134682B02DE9F0410F290D
S3150000324006AC84E80C005FD8BDF82040BDF82250DB
S3150000325044EA0503B3F5806F56D22E4B079E9DF8C0
S3150000326024809DF825E043F8212001F1100701F1A3
S31500003270400C43F8276001F15007B24223F81C4086
S3150000328023F8175042D0B8F1000F17D001F13008DB
S3150000329002EB4402C0F8D42143F8282044EAC122B4
S315000032A042F40048C0F8D881D0F8D881C0F8D821B7
S315000032B0D0F8D82143F82C8043F82720BEF1000F20
S315000032C01DD001F1600204EB4504344443F822406A
S315000032D0CA0202F580622A43C0F8D44142F400448F
S315000032E0C0F8D84101F17004D0F8D85143F8245001
S315000032F08031C0F8D821D0F8D82143F82120002009
S31500003300BDE8F04102B070470120F9E742F2021031
S31500003310F6E700BF841700000F2910B528D892B130
S31500003320144A01F1300452F82440C0F8D44101F1A6
S31500003330400452F82440C0F8D84101F1500452F834
S315000033402420C0F8D8218BB10A4B01F1600253F852
S315000033502220C0F8D42101F17002803153F82220D6
S3150000336053F82130C0F8D821C0F8D831002010BD5C
S315000033700120FCE78417000010B5274B27485A6840
S315000033805A6842F001025A60D3F8082242F4806279
S31500003390C3F8082203F5B4331A68026852BBD3F89F
S315000033A0402442F46752C3F840241D4AD2F8023042
S315000033B0DC05FBD41B4BD3F80427D107FBD5D3F888
S315000033C00427D207FBD4D3F84824174C174B21689F
S315000033D01A60930803F4F8530B43910001F07C0143
S315000033E012020B4302F47832134343F08103236045
S315000033F0012303600C4B1A680A4BC3F84424084A9D
S31500003400D2F8023013F48073FAD1034A516863F399
S315000034100001516010BD00BF00380424541700009D
S315000034200000052400A005245C17000058170000C2
S3150000343084B070B52DED028B82B008AC84E80F0025
S31500003440444C6E9AA2610D9A43499DF8B531BDF878
S3150000345014012377013A8A4278D20DA901229342B8
S3150000346009D8012B6FD19DF8B43173B101280FD95A
S3150000347042F2061060E00E4651F8045F3668B54227
S3150000348064D8002D62D00132E9E7B0F5806FEFD243
S31500003490FFF722FA314B32485A689FED328A6FF3B2
S315000034A08A225A60DA686FF31842DA60DA68042111
S315000034B061F30902DA605A682B4942F480625A6065
S315000034C0FEF718FF294B5B686360FFF755FF02F0B4
S315000034D085FD208102F076FD208202F085FDC0F395
S315000034E00D0307EE103AB8EEC77A830BC7EE086AEB
S315000034F007EE903AF8EEE77A77EEA67AC4ED037A0D
S3150000350002F066FDC0F30D0307EE103AB8EEC77A77
S31500003510830BC7EE086A01A807EE903AF8EEE77A41
S31500003520012377EEA67A0193C4ED057A03F014FB26
S31500003530003818BF0120404202B0BDEC028BBDE846
S31500003540704004B07047013B0F2B90E742F2041025
S31500003550F2E700BF64170000A02526000038042407
S315000035603333334000007A44CDCC4C40B8110000D0
S3150000357084B010B52DED028B82B006AC84E80F0046
S315000035809DF818300F2B7FD84249434C0B706C992D
S31500003590A16106A901EB8301404849699DF8AD2167
S315000035A022770139814271D2012A6AD106AA02EB39
S315000035B043039DF8AC21B3F8F43022B1012B05D9B1
S315000035C042F2061056E0B3F5806FF9D2FFF784F9A0
S315000035D0334B34485A689FED348A6FF38A225A6017
S315000035E0DA686FF31842DA60DA68042161F30902D7
S315000035F0DA605A682D4942F480625A60FEF77AFE14
S31500003600FFF7BAFE2A4B5B68636002F0E7FC208195
S3150000361002F0D8FC208202F0E7FCC0F30D0307EEAF
S31500003620103AB8EEC77A830BC7EE086A07EE903AEF
S31500003630F8EEE77A77EEA67AC4ED037A02F0C8FCD4
S31500003640C0F30D0307EE103AB8EEC77A830BC7EE48
S31500003650086A01A807EE903AF8EEE77A012377EEBA
S31500003660A67A0193C4ED057A03F076FA003818BFFE
S315000036700120404202B0BDEC028BBDE8104004B010
S315000036807047013A0F2A9AE70120F3E742F2041045
S31500003690F0E700BF6017000064170000A0252600B1
S315000036A0003804243333334000007A44CDCC4C40F8
S315000036B0B81100000F29024610B54FF001000CD8D2
S315000036C0D2F8CC4100FA01F32343D2F8CC119BB2D5
S315000036D063F30F01C2F8CC11002010BD0F2902467A
S315000036E010B54FF001000DD8D2F8CC4100FA01F325
S315000036F043EA1443D2F8CC119BB263F31F41C2F8DC
S31500003700CC11002010BD30B50F299DF80C402CD8E7
S315000037101F2A2AD80F2B28D8012C26D845686D06D3
S315000037200FD5090134B14518AC6B44EA835343F015
S315000037308063AB6301448B6B43EA42438B63002097
S3150000374030BD5CB1D0F8081241F40071C0F808121F
S31500003750D0F8081263F34811C0F80812D0F80832FE
S3150000376062F30403C0F80832E9E70120E8E7000045
S3150000377029B9D0F8083261F3CB23C0F80832064BDA
S315000037805B68DB0741BF43686FF3000343600020BB
S3150000379058BF4FF0FF30704700380424C1B20248CA
S315000037A082B002B0FFF7E4BF003804240F2915D811
S315000037B00D4B5A68520603D4D3F8DC31002B0FDACE
S315000037C0D0F8DC2101238B401343D0F8DC219BB2D7
S315000037D063F30F02C0F8DC21002070470120704718
S315000037E04FF40450704700BF00380424B1F5007F41
S315000037F014D2B2F5806F11D243686FF38A23436007
S31500003800C36861F31843C360C36862F30903C36006
S31500003810436843F48063436000207047012070478B
S315000038200F2925D8012A05D1436A6FF3D75343627E
S3150000383000207047022A0BD1436A6FF300034362EC
S31500003840436A6FF304134362436A6FF3C303EEE7FD
S31500003850084BD3F8DC31002BEADA436A0122C3F3C2
S31500003860CF138A4023EA0201436A61F3D613DEE7E7
S3150000387001207047003804240F2903464FF0010049
S3150000388014D81A6A00FA01F189B2186AC2F30F2233
S315000038900A4362F3172018621A6AC2F30F2222EA59
S315000038A00102196A62F317211962002070470000AD
S315000038B010B510B1012804D010BDBDE81040FFF7C7
S315000038C00BB84FF4006002F077FA0A4A13786FF3E8
S315000038D000031370DBB2002BEED1074B07484FF005
S315000038E000729A64064B1B6ABDE81040DB6B02212E
S315000038F0184700BFB41A00000084042400140424EE
S315000039000001300013B50D4BADF804004FF4006212
S31500003910C3F88020BFF34F8FBFF36F8F01210322BF
S31500003920084603F0EDF9044628B90120FFF7C0FF69
S31500003930204602B010BD4FF0FF30FAE700E100E08C
S315000039404368064A61F349234360D2F8403443EAA8
S315000039504143C2F840340020704700BF00A0052450
S3150000396084B02DE9F04F2DED028BF1B07CAC84E8EC
S315000039700F009DF8853365934FF4C47201237FA928
S31500003980684669939DED818A9DF8845311F010F87D
S3150000399094E80E006598BA4CFFF730F905EE900AE8
S315000039A0FFF714F994ED017A07EE900AB8EE476A2C
S315000039B0F8EE677AB7EE007A87EE065AC7EE276A00
S315000039C0C6EE857A17EE900AFEF758FF07EE900AC4
S315000039D0FCEEE77A17EE903AC5EE857A9EB217EEC0
S315000039E0900AFEF74BFF07EE900AFCEEE77A17EE19
S315000039F0903A9FB2BE4204BF0136B6B2002D5ED1E8
S31500003A00BDF8843327804FF4C27280A96846668069
S31500003A109C4CADF8843110F0CBFF7CAB0FCBFFF79D
S31500003A2001F8FEF795FF324639462046FFF7DEFEDF
S31500003A3001212046FFF784FF6368934EDFF840922A
S31500003A4043F000636360636843F040036360636848
S31500003A5065F3410363603323C4F8E431636843F0DC
S31500003A6004036360D4F8DC3143F00043C4F8DC316E
S31500003A700DF2E223669306F18103A8AF06F13E0B31
S31500003A8067930DF5F878659AEBB29A4200F28D804D
S31500003A907E4B6A9300227E4B6B9369A9012003F04B
S31500003AA093F810B1452840F0E78069996AAA012089
S31500003AB003F0F8F8003818BF012040426EE0B8EE77
S31500003AC0488A3946C6EE087A17EE900AFEF7D6FE01
S31500003AD007EE106A07EE900AB8EEC77A6948B4EEA8
S31500003AE0E77AF1EE10FA49BFFCEEE77A324617EEB6
S31500003AF0903A9AB24DBF6280278066802780FFF792
S31500003B0075FE01215F48FFF71BFF5E4B5A6842F0C6
S31500003B1000625A605A686FF386125A606A1E012A5A
S31500003B205A684FF0000194BF42F0020265F3410269
S31500003B305A60C3F8E4115A6842F004025A60D3F896
S31500003B40DC2161F3DF72C3F8DC219DF8F1219DF8D9
S31500003B5044029DF854125AB1D3F8086262F349261A
S31500003B60C3F80862D3F8086261F34816C3F808621E
S31500003B70444ED6F8083260F30403C6F80832FFF75D
S31500003B808DF92A4600213046FFF74AFE62886368AF
S31500003B90B3FBF2F33F4A0020C2F8803271B0BDECAD
S31500003BA0028BBDE8F04F04B0704798F854A098F81F
S31500003BB06430649318F8013F639300935246294694
S31500003BC0649B2046FFF79FFD36F8021F328C012AC0
S31500003BD008D0AB0003F1105303F58723A3F838117F
S31500003BE0C3F8782129462046FFF7E0FDDDE9632189
S31500003BF05046FFF753F929462046FFF76FFD7B6EC7
S31500003C006C93D7F8A4306D93669B33F802AF669336
S31500003C1040F20113ADF8BC31ADF8B8A1ADF8BAA1C8
S31500003C2070AB13E90300DDE96C238DE80300294638
S31500003C302046FFF701FB29462046FFF73BFD002201
S31500003C4029462046FFF7ECFDB9F80220D9F80430E2
S31500003C50B3FBF2F3328CB3FBF2F34BF8043F57F8A5
S31500003C60043FA6F8D0A0CBF85030679B639A03F8C0
S31500003C70012F0135679306E74FF0FF308EE700BF4F
S31500003C806417000000380424C2190000A93820086F
S31500003C90B93820088417000084B02DE9F04FEDB044
S31500003CA076AC84E80F009DF8D8419DF86C639DF8CA
S31500003CB06DA301200F2C659000F21281DFF840827F
S31500003CC08A4D88F800404FF4C47279A9684610F00E
S31500003CD06FFE76AB0ECB5046FEF790FF05EE900AD0
S31500003CE0FEF774FF95ED017A07EE900AB8EE476A83
S31500003CF0F8EE677AB7EE007AC7EE276AC7EE067A5D
S31500003D00C6EEA77A17EE900AFEF7B8FD07EE900A00
S31500003D10FCEEE77A17EE903A66EE257A9FB217EE3A
S31500003D20900AFEF7ABFD07EE900AFCEEE77A17EE77
S31500003D30903A1FFA83F94F4504BF0137BFB2002EF0
S31500003D4051D1BDF86C336A4C6F804FF4C2727AA9B8
S31500003D506846A5F80090ADF8843110F029FE76ABE0
S31500003D600FCBFEF75FFEFEF7F3FD3A4649462046C7
S31500003D70FFF73CFD01212046FFF7E2FD63685D4F3A
S31500003D8043F000636360636843F040036360636805
S31500003D9066F3410363603323C4F8E431636843F098
S31500003DA004036360D4F8DC3143F00043C4F8DC312B
S31500003DB0F3B29A4500F2A6804F4B669300224F4B12
S31500003DC0679365A9012002F0FFFE10B1452840F077
S31500003DD02A81659966AA012002F064FF003818BF9F
S31500003DE0012040427CE076AB03EB8404D4ED057AF7
S31500003DF0F8EE677A4946C6EE277A17EE900AFEF77E
S31500003E003DFD07EE107A07EE900AB8EEC77A3848FD
S31500003E10B4EEE77AF1EE10FA49BFFCEEE77A3A46DD
S31500003E2017EE903A9AB24DBF6A80A5F800906F805F
S31500003E30A5F80090FFF7DAFC01212D48FFF780FD79
S31500003E402B4B5A6842F000625A605A686FF386122A
S31500003E505A60721E012A5A684FF0000194BF42F060
S31500003E60020266F341025A60C3F8E4115A6842F04E
S31500003E7004025A60D3F8DC2161F3DF72C3F8DC2157
S31500003E8098F8002002F5EC726A4492F8540092F811
S31500003E90641052785AB1D3F8084262F34924C3F841
S31500003EA00842D3F8084261F34814C3F80842104F99
S31500003EB0D7F8083260F30403C7F80832FEF7EEFFBE
S31500003EC098F80040324621463846FFF7A9FCA03450
S31500003ED06A886B68B3FBF2F3064A42F82430002086
S31500003EE06DB0BDE8F04F04B0704700BF6417000026
S31500003EF00038042484170000A9382008B93820089F
S31500003F006017000098F80010639101F5EC736B449C
S31500003F10204693F8642093F8549093F801B0629287
S31500003F201346CDF800B04A46FFF7EDFB639901F55D
S31500003F30907337F8130001F5987337F81320012AA8
S31500003F4008D08B0003F1105303F58723A3F838013B
S31500003F50C3F878212046FFF729FC5A46629948465D
S31500003F60FEF79CFF98F8009020464946FFF7B6FBFF
S31500003F7076AB03EB89030136D3F81431689376AB3D
S31500003F8003EB8903D3F85431699376AB03EB49030A
S31500003F90B3F8F430ADF8A831ADF8AA3140F2011308
S31500003FA0ADF8AC316CAB13E90300DDE968238DE8AD
S31500003FB0030049462046FFF73FF998F8009020464F
S31500003FC04946FFF777FB494600222046FFF728FCC3
S31500003FD009F1A00269886B68B3FBF1F309F59871E2
S31500003FE037F81110B3FBF1F347F8223076AA02EB4B
S31500003FF0490209F5C473B2F8F42027F8132076AA0B
S3150000400002EB890209F1B403D2F8B42047F8232061
S3150000401009F5EC7207EB09030DEB020999F801208B
S3150000402083F8C022C4E64FF0FF3059E7D0F8E031FC
S3150000403043F00103C0F8E031002070472DE9F34159
S31500004040374B9A6A0192019A16020DD5426A1502F9
S31500004050C2F3C05008D45A6A42F400025A62314B85
S315000040609B690421984718E0019BDC0709D52C4A77
S31500004070136A43F0010313622A4B05219B69002052
S31500004080F0E7019C14F080740BD02548012100F064
S3150000409095F8254B02201B689847002002B0BDE822
S315000040A0F0811F4B5A68500603D4D3F8DC21002A4E
S315000040B025DA1E4D1A4FDFF86C80019BE21DD340B6
S315000040C0D90716D521463846FFF7D6FB2B78E6B238
S315000040D0B3FA83F2520931463846FFF71DF9D8F88C
S315000040E018300021304698472B78B3FA83F35B09E2
S315000040F02B700134102C05F10105DED1CDE75A688D
S315000041009207CAD4D3F8DC11C90FC6D15A6842F057
S3150000411004025A600198034BC0B29B69A2E700BF34
S315000041200038042464170000B81A00004417000081
S315000041300148FFF783BF00BF00380424030548BFCA
S3150000414020F40060174B58BF40F40060D1B11A8AC2
S3150000415093ED057A821A07EE902AF8EEE77A67EE73
S31500004160877AFDEEE77A17EE903A18B2B0F5805FDF
S3150000417011DA002812DDB0F5006F10DBA0F5006043
S3150000418000B270471A8993ED037A821A07EE902AD5
S31500004190F8EEE77AE3E740F6FF70EFE7002000F578
S315000041A00060EDE764170000406921B11146C0F3D5
S315000041B00B00FFF7C3BFC0F30B007047436A01292A
S315000041C01DBF43F002034362436A43F0807318BF86
S315000041D043F004034362002070472DE9F04F92F844
S315000041E006C092F802A05378D5781679577992F8D6
S315000041F007E092F8088092F8099092F80AB0D47A0B
S31500004200127802B35B0643EA4B7343EA8A5343EAE6
S31500004210495343EA085343EA4E4343EA0C4343EA0D
S3150000422047330901026843EAC62301F1105143EA04
S31500004230852301F5872142F0004243EA44230260C8
S31500004240CB63BDE8F08F02686CF3C71202600268A8
S315000042506AF34F320260026863F313420260036836
S3150000426065F341030360036866F383030360036831
S3150000427067F30613036003686EF30A23036003689B
S3150000428068F3CB230360036869F30C3303600368A8
S315000042906BF314530360036864F300030360D0E711
S315000042A0054B9A689107FCD45A689207F9D4DA69E3
S315000042B0002AF6D1704700BF008C0424064B1A6A08
S315000042C061F397421A621A6A60F34C221A621A6AFA
S315000042D09204FCD5704700BF00800424024B0122E3
S315000042E0C3F80421704700BF008C0424074B5A68AA
S315000042F0012A0AD102221A61DA699207FCD4012244
S31500004300C3F804229A60FFF7CBBF7047008C0424E1
S3150000431010B5064CFFF7C4FF6368012B03D1FFF706
S31500004320E5FFFFF7BDFF0378E36010BD008C0424B2
S3150000433010B101281CD070474A680B7812B1127868
S3150000434043EAC2034A7843EA42038A6812B1127802
S3150000435043EA82138A7843EA8203CA6812B1127862
S3150000436043EA4223104A9364936D002BFCD17047B5
S315000043704A680B7812B1127843EAC2034A7843EAD4
S3150000438042038A6812B1127843EA82138A7843EAB2
S315000043908203CA6812B1127843EA4223024A93663C
S315000043A0936F002BFCD17047008C042410B10128B8
S315000043B004D07047034BC3F844117047014BC3F850
S315000043C064117047008C042410B1012804D0704792
S315000043D0034BC3F844127047014BC3F8641270478D
S315000043E0008C042410B1012804D07047034BC3F895
S315000043F040127047014BC3F860127047008C0424CA
S3150000440018B1012804D000207047034B186C704780
S31500004410014B186E704700BF008C042418B10128A8
S315000044200BD00020704711B1012903D07047074B0C
S31500004430D86C7047054B186D704721B10129F0D132
S31500004440024B186F7047014BD86E7047008C0424DE
S3150000445010B101280CD070470B4B29B1012905D0AA
S315000044609A6D002AFCD17047DA64F9E71A65F7E716
S31500004470054B29B1012905D09A6F002AFCD1704756
S31500004480DA66F9E71A67F7E7008C0424044B4FF461
S3150000449080625A60034B4FF480021A60704700BF77
S315000044A00000081200E100E0094B4FF48002C3F857
S315000044B08020BFF34F8FBFF36F8F064B4FF48062A0
S315000044C09A601A60044AD36B43F48063D3637047DF
S315000044D000E100E0000008120081042410B4034C3F
S315000044E02468646CA4465DF8044B60470001300004
S315000044F0034B1B680A469B6C01460248184700BFDF
S315000045000001300000140424014BDB685B69184786
S31500004510000130008A1E70B543680D46052A04D88E
S31500004520DFE802F01B1D4C4E50528469B3F1884FF0
S3150000453060D163783F2B19D95B4B60781B68403894
S31500004540D3F8E830C0B2984762785848403A062314
S31500004550D2B20021FFF7C2FF08E0C469E6E7B3F173
S31500004560884F046A32D160783F283AD8E07820B183
S315000045704D4B1B68D3F8C03098476078A0F11903FB
S31500004580052B04D8484B1B68D3F8B8309847032D41
S3150000459006D1454B60781B680121D3F8D430984783
S315000045A0414B60781B68D3F8C8309847A378627887
S315000045B021783F48BDE87040FFF790BF446AB5E7F1
S315000045C0846AB3E7C46AB1E7046BAFE7394A93423A
S315000045D0C9D0394A934211D160783F28C6D9032DF4
S315000045E0AAD1314B1B684038D3F8F0300121C0B254
S315000045F09847A1E72F4A9342EBD19AE72F4A934275
S3150000460050D1002C4ED062783F2A18D9032D07D1FD
S31500004610254B1B68403AD3F8F0300121D0B29847B9
S31500004620214B60781B684038D3F8E830C0B2984711
S315000046306278A37821781D48403AD2B2BAE71C487E
S3150000464021780923FFF74AFFE07820B1164B1B6853
S31500004650D3F8C0309847032D06D1134B60781B68FA
S315000046600121D3F8D43098470F4B60781B68D3F8F4
S31500004670C830984721780D4862780023FFF72EFF4F
S315000046806078A178A0F12E03032B02D82638C0B299
S3150000469002E00F2804D10720BDE87040FFF728BFCD
S315000046A00638F4E770BD00BF0001300000C00424E6
S315000046B000001346000100440000024500180424CF
S315000046C0F0B5436885B00024B3F1884F01940546E0
S315000046D0029403940BD0774A934208D0764A9342C9
S315000046E000F0D180754C181B4442444164009A681E
S315000046F00192019A02F00602062A4FEA84742CD12E
S315000047005B690293029B990710D56A6913686BB1BE
S3150000471001215171202098476B6993F82820032ABC
S3150000472004D193F826300BB144F01004029B5A07CB
S3150000473007D56A69136823B1012111724FF400701D
S315000047409847029B1B0740F1A0806A69136823B152
S315000047500121D1714FF480709847019B9E071DD5AA
S315000047606B691E6910201A6A6968964209D09F69AA
S315000047700138BF5C0F6002F101021A62F3D1964262
S315000047800CD14A6822F002024A60002283F82620F1
S315000047901B681BB144F0010420469847019B58074B
S315000047A038D56B691A68002A34D06A685169C90716
S315000047B025D511685A69DB69D1546B69DA69D968FC
S315000047C001328A42DA611AD169684A6822F0010226
S315000047D04A6093F82820023A0021012A197164D808
S315000047E093F8272083F82710022A5ED0032A59D08F
S315000047F0012A01D144F001041B68204698476B69E1
S315000048001A683AB1D969DB68994203D044F040048A
S3150000481020469047019B1A074AD16B689B69039310
S315000048206B78DB0608D5039BDF0705D56B6944F477
S3150000483080641B68204698476B785E0608D5039B04
S31500004840980705D56B6944F400641B6820469847B1
S31500004850AB78D90708D5039B5A0705D56B6944F48D
S3150000486000541B682046984795F90130002B1FDA43
S31500004870039B1B071CD56B691B6844F4805005B06D
S31500004880BDE8F0401847012431E7029BDF067FF5BB
S3150000489064AF6A691368002B3FF45FAF0121917121
S315000048A0802059E744F00404A6E744F00204A3E795
S315000048B005B0F0BD000100440000024500180424C4
S315000048C030B504460AB3B0F5E10F1ED8536880250B
S315000048D0DD608900B1FBF0F1D3F8C0006FF305008D
S315000048E0C3F8C000002018605860D860DD60C1F3CE
S315000048F087151D60C1F3873501F03F015D60C3F880
S31500004900C010D8605369DC6230BD40F20160FBE73D
S315000049102DE9F7434E69DDF8289096F8295015F0F1
S3150000492001050C46174698466ED1C6E90005357254
S3150000493086F8265086F824504B68B3F1884F02D08B
S31500004940354A934212D1354B10229A60344BA26BF2
S31500004950DB69019294F834200092D3F8A45094F8BD
S315000049603C20002301214FF08C40A84762682D4B64
S315000049709A4215D103F15F4303F5213310229A6061
S31500004980274BA26BDB69019294F834200092D3F88E
S31500004990A45094F83C20012319464FF08C40A847B8
S315000049A06268214B9A4210D103F5D8434FF40012A6
S315000049B05A641B4B228F1B6A0092DD6994F83C20D7
S315000049C094F8353019480121A847E3680BB92369E3
S315000049D0B3B16568B5F1884F08D00F4B9D4205D03D
S315000049E0104B9D4202D0104B9D4211D10C4BDB68FF
S315000049F04A461D680B9B41463846A847C9F8000041
S31500004A006369012283F82920002003B0BDE8F08302
S31500004A104FF0FF30F9E700BF000100440084042492
S31500004A20000130000000024500180424001404248C
S31500004A3038B54368B3F1884F04460D4602D01F4A85
S31500004A40934207D11E4BDB690021D3F8E8304FF0C3
S31500004A508C40984762681B4B9A4207D1184BDB691A
S31500004A600121D3F8E8304FF08C4098476268164B26
S31500004A709A4205D1124B15481B6A0821DB6B9847F1
S31500004A80E3680BB923698BB16368B3F1884F08D02B
S31500004A900A4A934205D00B4A934202D00A4A9342ED
S31500004AA009D1074BDB6828465B6898476369002095
S31500004AB083F8290038BD4FF0FF30FBE700010044C2
S31500004AC000013000000002450018042400140424EC
S31500004AD070B50C4615461E4620B1022872D06FF0FE
S31500004AE0030070BD91F9080000280CDB4309474913
S31500004AF000F01F0020330122824041F82320BFF33B
S31500004B004F8FBFF36F8FE06862696368B0B192F848
S31500004B1026209AB1B3F1884F0BD03D4A934208D074
S31500004B203C4A934205D03C4A934202D04FF0FF30B4
S31500004B30D7E7007932462946FFF7E6FCD4E90402B6
S31500004B40636890B1127982B1B3F1884F08D0304AC8
S31500004B50934205D02F4A934202D02F4A9342E5D181
S31500004B60007932462946FFF7CFFC63682B4AB3F13A
S31500004B70884F05D026498B4202D026498B421DD14B
S31500004B801023D36094F90830002B09DB5A09012160
S31500004B9003F01F03994002F160031C4A42F82310F8
S31500004BA0636900225A601A7283F8262093F8292036
S31500004BB022F0020283F82920002092E74FF4001326
S31500004BC09364DFE74A6992F82930D907AED513F026
S31500004BD00203F1D161684B605360137282F826308C
S31500004BE04FF44073138594F90830002BE4DB03F08F
S31500004BF01F015B099B0003F1604303F5614301223A
S31500004C008A40C3F880211A60D6E700BF00E100E0C1
S31500004C100001004400000245001804240084042416
S31500004C202DE9F04F8FB00DF11C0A06460D46904651
S31500004C3000211C225046DDF864901F460FF040FE0E
S31500004C40002E00F08D80002D00F08A80D8F8142008
S31500004C5092F82930580704D44FF0FF300FB0BDE862
S31500004C60F08F92F82630002B7DD1012482F8264061
S31500004C70D8F80CE013629661D8F804301561BEF1DD
S31500004C80000F59D0B3F1884F099450D0374A934258
S31500004C904DD0374A93424CD0364A9342DCD1224615
S31500004CA00324CDE90C4201210B91DEF80000DEF869
S31500004CB008C007919EF80410BEF800E0CEF3091E66
S31500004CC06EF30D1000F0070BBBF1020F01BFBA68BF
S31500004CD094686BF302049460274C0EF1010295422E
S31500004CE0E26838BF05F1FF3ED2F808B0189ACDF851
S31500004CF0149038BFCEF3090E6EF30D10CDE903C242
S31500004D00CDE9010A009532463846D8470130A3D08E
S31500004D10D8F80C00E3680079DB6839464A469847BC
S31500004D20E36849461B6938469847002096E71922EA
S31500004D30B7E71B220224B4E7596989060ED45A68DC
S31500004D4042F002025A60F0E74C1C1462715C196072
S31500004D500138F4D0116AA942F6D1F0E71020F9E73C
S31500004D606FF004007AE76FF0010077E70001004476
S31500004D700000024500180424000130002DE9F04F20
S31500004D808FB0984607AB81460F4618461646002157
S31500004D901C22DDF864A00FF093FD0346B9F1000F65
S31500004DA07BD0002F79D0726992F82910490704D474
S31500004DB04FF0FF300FB0BDE8F08F117901296FD0A9
S31500004DC000250124546015723069D760C2F814902A
S31500004DD0D561726800285BD0B2F1884FCDE90854DE
S31500004DE051D031498A424ED030498A424DD030495D
S31500004DF08A42DDD10324B0F800B0D0F800C0D0F864
S31500004E0008E0CBF3091BCDE90C456BF30D1C012122
S31500004E100B9107910CF007050021022D0A910179EB
S31500004E2001BFD8F80800846865F302048460214C49
S31500004E300BF101008742E06838BF07F1FF3B856848
S31500004E401898CDF814A038BFCBF3090B6BF30D1CE3
S31500004E50CDE903E0CDE901C300974B464046A8479C
S31500004E600130A5D03069E3680079DB6852464146D7
S31500004E70984796F8403023B9E36851461B69404687
S31500004E809847002096E71825B5E71A250224B2E7C9
S31500004E90536843F001035360F3E76FF0040089E7BA
S31500004EA06FF0010086E700BF0001004400000245E4
S31500004EB000180424000130002DE9F3470746DDE918
S31500004EC00AA8DDF83090084616461D461FB311B3F2
S31500004ED00AB35B6993F82920520723D595F8404019
S31500004EE0F4B12A7812F0060F1CD0032283F827208B
S31500004EF03146CDE9008953462A46FFF73FFF60B9A0
S31500004F0053462A4631463846CDE90A8902B0BDE8FD
S31500004F10F047FFF785BE6FF0040002B0BDE8F087EA
S31500004F202046FAE74FF0FF30F7E74369186A704703
S31500004F304369D869704700002DE9F0471C465B6954
S31500004F40924693F8292080469007DDE9086789464E
S31500004F5040F120825FFA88F5A5F11501052900F2D6
S31500004F60D680DFE801F0031929426C94B9F1000FED
S31500004F700DD002212046FFF7CDFA626992F829305A
S31500004F8043F0080382F829300020BDE8F08722F0BC
S31500004F90080283F82920F7E7B9F1000F09D00321A9
S31500004FA02046FFF7B7FA626992F8293043F01003FA
S31500004FB0E8E722F01002ECE7B9F1000F0DD093F804
S31500004FC02620002A40F0E9816168CA6842F0400262
S31500004FD0CA60012283F82620D6E76168CA6822F0F3
S31500004FE04002CA6083F82690CEE76068426822F0E5
S31500004FF002024260D4E90352E2B9B5B10D228260E1
S3150000500093F826309BB1B0F1884F08D08E4B98426A
S3150000501005D08E4B984202D08D4B984207D1287905
S315000050203A463146FFF770FA01E00523836063696B
S315000050300022CFE70D228260002DE1D1F7E76068FC
S315000050402569426822F0010242604DB9E3682BB936
S3150000505003238360636900221A7195E70B23F8E73F
S315000050600B2282601B79002BF4D0B0F1884F08D058
S31500005070754B984205D0754B984202D0744B9842B6
S31500005080E8D128793A463146FFF73EFAE2E7626808
S31500005090E068516821F00301516098B193F8263019
S315000050A083B1B2F1884F08D0674B9A4205D0674B5F
S315000050B09A4202D0664B9A4204D100793A4631466A
S315000050C0FFF722FAD4E90402636840B9E368E3B95A
S315000050D0072362689360636900221A717AE712797E
S315000050E09AB1B3F1884F08D0574A934205D0574A30
S315000050F0934202D0564A934207D100793A46314646
S31500005100FFF702FA2369002BE0D00F23E1E76A1EBE
S31500005110132A00F24581DFE812F039001400470037
S315000051205E006F008A0043014301430143014301CE
S3150000513043014301430143018F0017008A00920097
S315000051408A0094F8403013B96FF006001DE76268D4
S315000051503D4B9A42F8D12378990717D5012120466D
S31500005160FFF7D8F963689A6D42F001029A659A6D65
S3150000517042F002029A6594F841109A6D41B342F0EA
S3150000518010029A659A6D42F020029A6508F4E0666C
S31500005190B6F5A06F72D05DD8002E72D0B6F5807FBE
S315000051A071D06FF00800F0E66268274B9A42CBD1C7
S315000051B023785A07C8D501212046FFF7ABF9636863
S315000051C09A6D42F001029A659A6D6FF34102D1E73A
S315000051D061F30412D5E721780B07D7D563681A6CFB
S315000051E042F001021A641A6C8F074CBF6FF341023A
S315000051F042F002021A64C9E76368B3F1884F02D02D
S31500005200114A9342A0D12378DE069DD50621204679
S31500005210FFF780F920460721FFF77CF92378D806A7
S3150000522092D56268136943F040031361AEE72578AF
S3150000523015F02005AAD087E783F82490A4E6257800
S3150000524015F04005F6E700BF0001004400000245E6
S3150000525000180424B6F5C06F17D0B6F5E06FA0D1DC
S315000052600026022708F44053B3F5805F10D0B3F54B
S31500005270005F1BD073B16FF0090086E60026002799
S31500005280F0E70327EEE70926F9E700260127E9E715
S3150000529047F0180708F44043B3F5804F09D0B3F53B
S315000052A0004F06D03BB16FF00A006EE647F00807E4
S315000052B0F0E747F0040708F44033B3F5003F2FD07A
S315000052C007D8002B3BD0B3F5803F19D06FF00B0009
S315000052D05BE6B3F5403FF9D1637803F01803182B6A
S315000052E007D104212046FFF715F905212046FFF7CF
S315000052F011F9238803F4C073B3F5C07F0BD0E5E73B
S315000053006378190703D505212046FFF703F994F9B9
S315000053100030002BDADA6268136943F022030DE0ED
S315000053206378DA0603D504212046FFF7F3F863789D
S31500005330DB07CBD56268136943F020031361AB1E0C
S31500005340012B05D818F4802F2DD118F4002F2DD15C
S31500005350D4F80480D8F8103023F01003C8F81030C1
S31500005360224651464846FFF7ABFA6369012183F8A6
S315000053702850C8F80810C8F80C70C8F8CC60D8F8DF
S31500005380AC2061F3C402C8F8AC2093F8292042F09F
S315000053900402FEE54FF0FF30F7E56FF00100F4E59B
S315000053A06FF00300F1E56FF00C00EEE56FF00D0015
S315000053B0EBE500BF42694368107A5969137981F0B9
S315000053C080015B00C1F3C01103F002030B43517966
S315000053D0C90001F008010B439179090101F01001A0
S315000053E00B43D179490101F0200180010B4300F004
S315000053F040001843704700004B6993F829305B075B
S3150000540032D54B68002B32D0032830D8DFE800F0C5
S31500005410020B121F4A78120729D51A6922F00202D6
S315000054201A61002070474A78100720D51A6942F0A1
S315000054300202F5E7B3F1884F02D00E4A934216D125
S315000054404A78910613D51A6922F00102E8E7B3F10A
S31500005450884F02D0074A934209D14A78920606D568
S315000054601A6942F00102DBE74FF0FF3070476FF038
S315000054700300704700010044024630B5536800201F
S315000054801BB3516991F8291049071ED555789969BA
S315000054909278EB064CBFC1F30013034615F04004A7
S315000054A018BFC1F3401412F0010218BFC1F38012F5
S315000054B02D060FD5C1F3C01143EA440343EA810325
S315000054C043EAC20363F3070030BD024601460446C1
S315000054D00346F1E70021EFE741F20273984221D03B
S315000054E011DC41F2045398421CD005DCF8B10128C6
S315000054F00CBF21200120704741F2017398420CBF76
S3150000550011200120704742F2041398420CD042F257
S31500005510061398420AD042F2031398420CBF212088
S315000055200120704721207047282070472B207047A4
S31500005530014BDB695B6E184700013000014BDB69EC
S315000055409B6B184700013000014BDB695B6A18470B
S3150000555000013000484B994270B50C46154600F2E2
S315000055608880464B99420AD9454B4FF400125A623D
S31500005570444B10229A615A6C42F010025A64012878
S3150000558042D0022861D060BB3F4B404EDB6901210F
S31500005590D3F8EC30A422084698473D4B9C60FFF7B1
S315000055A0D3FF3C4B9D4205D103F060F9736823F4A9
S315000055B0404373604FF45943A6F86030324BDB69C1
S315000055C02A469B6821464FF08C40984750B9324B8B
S315000055D09C420BD8314B4FF40032DA664FF48022EE
S315000055E0DA660020BDE87040FFF776BF2C4B9C4280
S315000055F0F7D92A4BDA6E9203F3D44FF480229A66D7
S315000056004FF400329A66ECE7214B204E5C61FFF7BF
S315000056108FFF204B9D4205D103F028F9736823F4D0
S31500005620404373604FF45943A6F8A030164BDB692C
S315000056302A469B6D21464FF08C4098470028D1D1D1
S31500005640592CC7D95A2CD4D1CBE7114B9C61FFF703
S3150000565075FF03F00BF90D4B4FF45942A3F8E02008
S31500005660094BDB692A46DB6B21464FF08C40984795
S31500005670B8E7212070BD00BF0095BA0AFF0D2707C5
S3150000568000002820008000460001300000801846F7
S31500005690B8110000005A62027F4A5D0500840424A6
S315000056A0BF8C6C051E4B994270B505460E460DD84B
S315000056B01C4A536A23F4001353621B4B9A6922F067
S315000056C010029A615A6C22F010025A6400221146A6
S315000056D04FF08C4000F098FC0446FFF7FDFE0246B2
S315000056E0D8B9D5B1042D13D1104A31460120FFF7A0
S315000056F031FF04B22046FFF7EFFE024668B929469D
S315000057004FF08C4000F080FCBDE87040FFF7E4BE2F
S31500005710022DEFD1054A3146E9E7104670BD00BFBC
S31500005720FF0D27070000282000800046005A62026D
S3150000573008B503F09BF803214FF08C4000F044FDC0
S3150000574003F094F8032000F0B1FDBDE808400249DB
S315000057500220FFF7A7BF00BF0095BA0A044BDB681B
S3150000576003604FF08C43986A00F00F00704700BF4B
S31500005770B811000010B5002486B001232146082088
S31500005780ADF808308DF80430CDE903448DF80040BB
S315000057908DF80A400594FEF791FD6846FEF7B8FDC0
S315000057A001AB02A9204603938DF80840FEF7C0FD21
S315000057B00F212046FEF708FE0F212046FEF712FEB7
S315000057C0FEF78CFD0B4B9C61DA695207FCD40A4A42
S315000057D04FF480615160094A4FF48001116018212D
S315000057E082F8161301221A61DA69002AFCD106B082
S315000057F010BD00BF008C04240000081200E100E088
S31500005800014B9869704700BF008C042400210846AC
S31500005810FEF704BE00F00101830748BF41F0020114
S315000058200020FEF7C3BD00002DE9F041044609F053
S31500005830FBF81A4D0746D5F81880FFF7E7FF06462E
S315000058400020FEF7DDFD830705D4A6EB0803042B35
S3150000585001D8464514D1A969B4F1FF3F28BF0134E8
S31500005860C1F103032344072B98BFCC1C0021084633
S31500005870621EFEF7EDFD0220FFF7CCFFFEF706FEE7
S31500005880384609F0D5F8064A13782BB1AB6C43F0CD
S315000058900103AB6400231370BDE8F081008C04247F
S315000058A078060000830700F0010109D5064B0122A6
S315000058B01A70064A936C23F0010341F002019364C7
S315000058C00020FEF781BD00BF78060000008C04248E
S315000058D0830742BF024B0222C3F84021704700BF34
S315000058E0008C042438B5FEF7DFFD09F0A6F804465F
S315000058F00020FEF785FD830700F0010548BF45F04F
S31500005900020500F003010020FEF76CFD284609F0B1
S315000059103DFA204609F097F8BDE83840FEF7B6BDD7
S315000059204FF4004070470000044B4FF48072DA6376
S31500005930034B4FF400629A60704700BF0081042455
S315000059400000081208B5284B4FF400621A60274A77
S31500005950D2F88C3743F4004343F08003C2F88C3707
S31500005960D2F88C375B06FBD5D2F88C27204BDFEDBF
S31500005970216A9FED216A214902F03F021A601A68E6
S31500005980262A84BF26221A601D4A9268EAB11D485B
S31500005990C2F315020260D3ED007A90ED007AF8EEBC
S315000059A0677AB8EE477A77EEA67A37EE267A67EE0A
S315000059B0867AC7EE876AC1ED006AFFF7B5FF0A4B24
S315000059C04FF400625A60086808BDD3ED007AF8EE1D
S315000059D0677A77EEA67ADFED0C6A67EE867A87EE4F
S315000059E0A67A81ED007AE8E70000081200A00524F7
S315000059F0C41A000089410B4233335340BC1A0000DD
S31500005A00D80C0000C01A0000C4A08342F0B5A24C16
S31500005A10A24BA2680578A24E02EA0301027802F0C0
S31500005A2001020A439F49A2608A6802EA0304427897
S31500005A3002F00102920042EA951222438A600A6944
S31500005A40457802EA03040278C2F344022243964CE4
S31500005A500A61A26802EA0301827802F00302520197
S31500005A6042EAD5020A439149A2608A6884781A40BC
S31500005A7042EA94028E4C8A60A268C1781A4001F00C
S31500005A801F011143A160B268047902EA030504F01C
S31500005A903F04C278640044EAD214C2F3411242EAD7
S31500005AA084022A43B260834E4579B26802EA03044F
S31500005AB0027905F07F05920942EA850222437E4D6E
S31500005AC0B260AA6802EA0304C27902F00F02224316
S31500005AD07A4CAA60A268C579067A1A4042EA15127B
S31500005AE0774DA260AA6802EA0304427C02F07F02B4
S31500005AF02243AA60734DAA6802EA0304027A02F0FE
S31500005B007F022243AA60704DAA6802EA0304427A21
S31500005B1002F01F02520042EAD61222436B4EAA60DE
S31500005B20B268857A02EA0304C27A520042EAD512C2
S31500005B30057B05F0010542EA45222243644DB26029
S31500005B40AA68467A02EA0304827A02F07F02D20049
S31500005B5042EA56122243AA605E4D5F4EAA6802EAE6
S31500005B600304B0F80D202243AA60B268457D02EA1C
S31500005B700304027D05F00F0542EA05222243574D34
S31500005B80B260AA68564E02EA0304427DC2F30212CC
S31500005B902243AA60B268C57D477902EA0304827D82
S31500005BA005F00F0542EA05222243B2604D4EC57D3F
S31500005BB0B26802EA0304027E120142EA1512457E29
S31500005BC005F00F0542EA05322243474DB260AA6846
S31500005BD0467E02EA0304827E120142EA161222433C
S31500005BE0AA60424DAA6802EA0304B0F81B202243C9
S31500005BF0AA603F4DAA6802EA03048279560802F0B9
S31500005C000102520042EAD71242EA86022243847C0B
S31500005C10AA60457C90F8246004F00F02520052EA14
S31500005C20D512344D1EBFA96819401143A960324DE3
S31500005C301A4AAB6803EA0201437F03F00F030B43E2
S31500005C40AB602E4DAB6803EA0201837FC3F3830387
S31500005C500B43AB602A4DAB6803EA020190F825308E
S31500005C6003F007035B0043EAD6130B43AB60254DF5
S31500005C70AB6803EA0201C37C03F003035B0043EA5B
S31500005C80D4130B432049AB608B681A40837CC3F363
S31500005C90021313438B60F0BDB80D00000000C0FF77
S31500005CA0400D0000A40D00008C0D0000740D0000D6
S31500005CB0680D0000240D0000FC0C0000F00C000034
S31500005CC0800D0000E40C0000D80C0000CC0C000095
S31500005CD0D00D0000B40C0000C00C0000300C000019
S31500005CE0A80C00009C0C0000900C0000840C000026
S31500005CF0080D00005C0D0000780C00006C0C000024
S31500005D00600C0000480C0000540C0000FBF766BB5A
S31500005D10F0B5194D194C2B88E5B004F11001002699
S31500005D2000274FF4C2726846ADF88431CDE9626748
S31500005D300EF03EFE94E80F0000F094FD62A800F01D
S31500005D4031FE2B78687843EA002000F0E3FEDDE9B7
S31500005D50624532463B46204629460DF03FFC48B197
S31500005D60074B0022204629460DF024FC10B10020E6
S31500005D70FBF788FB65B0F0BD300800009C0600000C
S31500005D8000004E4010B50A4A0A4BD2F80815D3F85F
S31500005D900240E405FBD440EA5110C2F80805D3F8E6
S31500005DA00220D205FBD4024BD3F8083510BD00BF44
S31500005DB000A005240000052410F4405F0F4B0BD013
S31500005DC0D3F8042522F48012C3F80425D3F8042559
S31500005DD022F40012C3F80425D3F80825084BD3F89B
S31500005DE00210C905FBD4C04300EA5210034AC2F8A8
S31500005DF00805D3F80220D205FBD4704700A005247D
S31500005E00000005240D4A0E49D2F81035013823F05A
S31500005E10030310B5C0B2C2F81035D1F80230DC0564
S31500005E20FBD4D2F81045012383402343C2F8103532
S31500005E30D1F80230DB05FBD410BD00BF00A005245D
S31500005E40000005242DE9F04F88B305687DB30021D5
S31500005E5000F1040C01275CF83160013150F8313053
S31500005E60C3F38454C4EBD3620132162A1FD84FF011
S31500005E700009D6F80080A646CA46224407FA0EFB59
S31500005E800EF1010E28EA0B08724507FA09FB4AEAE9
S31500005E900B0A09F10109F1D803EA0A03A34043EA10
S31500005EA00803A9423360D6D10020BDE8F08F012057
S31500005EB0FBE7F0B500B30768F7B100254FF0010C1A
S31500005EC0013550F83530C3F38454C4EBD362013244
S31500005ED0162A11D800210E4622440CFA01FE013181
S31500005EE046EA0E0604EB010E7245F6D8BD42E7D12E
S31500005EF003EA0600A040F0BD0120FCE7024A9368D1
S31500005F009B0D9B0593607047300C0000034AD2F846
S31500005F10383723F00403C2F8383770470080052469
S31500005F20064B074A996C0748DA620229D96C08BF02
S31500005F301A60022908BF5A60FFF784BFB811000033
S31500005F400048E8018C0D0000024B034A03485A63DF
S31500005F50FFF778BFB81100000048E801740D000093
S31500005F60064B074A996C07481A630529D96C08BF7E
S31500005F701A60052908BF5A60FFF764BFB811000010
S31500005F80002D3101E40C0000034B04484FF4FA42A3
S31500005F901A62FFF757BF00BFB8110000680D000076
S31500005FA0034B04484FF4FA425A62FFF74BBF00BF57
S31500005FB0B8110000080D00000148FFF77ABF00BFC6
S31500005FC0C00C00000148FFF774BF00BFA80C00001A
S31500005FD00148FFF76EBF00BF9C0C00000148FFF7A9
S31500005FE068BF00BF900C00000148FFF762BF00BF0A
S31500005FF0840C00000148FFF75CBF00BFB40C000032
S3150000600001B108477047000010B5002852D03E2A5B
S3150000601050D82B4BDB689C0748BF5208052949D846
S31500006020DFE801F003481B26313C836A6FF3030364
S315000060308362244B1B6824490B60846DE405FCD500
S31500006040846A62F30914846212B1B3FBF2F30B6043
S315000060501C4B0A68DA60002010BD836D9B062BD5A9
S31500006060836A022161F303038362164B9B68E2E7AE
S31500006070836D5C0620D5836A032161F30303836283
S31500006080104B1B69D7E7836D190715D5836A042161
S3150000609061F3030383620B4B5B69CCE70B4B5B6AD3
S315000060A05B0709D5836A052161F303038362054B08
S315000060B09B6BC0E70120CFE741F20170CCE700BF40
S315000060C000860424B81100000812000000140424FD
S315000060D007B50B46114606281ED8DFE800F0042156
S315000060E0333B47586400364A106A40025EBF106A66
S315000060F040F48000106213B90A20FFF781FF314B8C
S31500006100D3F81C2122F08012C3F81C21D3F81C21DD
S3150000611042F00122C3F81C21002003B05DF804FB05
S31500006120274A106A800207D4106A40F48010106271
S31500006130106A40F400101062002BEDD10A20FFF720
S315000061405FFFE9E71E4A106AC002F5D4106A40F400
S315000061508010F0E71A4A106A00035EBF106A40F426
S3150000616000201062002BD7D10220E8E7144B1A6AF0
S315000061705203D1D41A6A42F480221A624FF4FA709A
S315000061800191FFF73DFF019940F2DC50D7E70C4A39
S31500006190106A80035EBF106A40F400301062002B64
S315000061A0BAD1FA20CBE7064A106AC0035EBF106A6E
S315000061B040F480301062002BAED19620BFE700BFBE
S315000061C0008104240080042410B50446002858D019
S315000061D00139052955D8DFE801F003131D27344599
S315000061E0294BD969012262F30201D961274B9A64CE
S315000061F05B6C264A1360A36D002BFCDA002010BDF1
S31500006200214BD969022262F30201D9611F4B9A64BC
S31500006210DB6AEEE71C4BD969032262F30201D961FE
S315000062201A4B9A64DB6BE4E7194B40229A83164BB0
S31500006230D969042262F30201D961144B9A641B6C7A
S31500006240D7E7114B1A6AD2025EBF1A6A42F480126D
S315000062501A62D969052262F30201D9610B4B9A646D
S315000062601B6BC6E7012100220846FFF731FF064BEC
S31500006270D969062262F30201D961044B9A645B6B09
S31500006280B7E70120BBE700BF00810424B811000076
S3150000629000801341044B1A6822F00F021A601A6834
S315000062A010431860704700BF00000524013808B588
S315000062B0052850D8DFE800F003101A243140274B98
S315000062C0D969012262F31241D961254BDA645B6C0C
S315000062D0234A0020536008BD204BD969022262F38D
S315000062E01241D9611E4BDA64DB6AF1E71B4BD969AF
S315000062F0032262F31241D961194BDA64DB6BE7E7DB
S31500006300184B40229A83154BD969042262F3124135
S31500006310D961134BDA641B6CDAE7002201210220F3
S31500006320FFF7D6FE0D4BD969052262F31241D961FA
S315000063300B4BDA641B6BCBE7012100220846FFF703
S31500006340C7FE064BD969062262F31241D961044B96
S31500006350DA645B6BBCE70120BDE700BF0081042463
S31500006360B8110000008013412DE9F04190461F4608
S315000063700446002800F09880FF2A00F2958007293D
S3150000638000F292800139494D494E062905D8DFE8C9
S3150000639001F00E1D455463727C000020FFF77AFF62
S315000063A063696FF34403636173682B601DE000202B
S315000063B0FFF770FF00213A460520FFF789FE636963
S315000063C0012262F344036361336AEEE70020FFF7BC
S315000063D061FF00213A460620FFF77AFE736A2B60BA
S315000063E06369022262F344036361A36A1B07FCD557
S315000063F062695FFA88F363F34C126261636943F082
S3150000640001036361B8F1000F03D02B68B3FBF8F307
S315000064102B602B68F3600020BDE8F0810020FFF7B9
S3150000642039FF00213A460420FFF752FE6369032232
S3150000643062F344036361B36AB7E70020FFF72AFFFC
S3150000644000213A460320FFF743FE6369042262F304
S3150000645044036361F36AA8E70020FFF71BFF0021EE
S315000064603A460220FFF734FE6369052262F34403CD
